{
  "contractName": "DigitalArt",
  "abi": [
    {
      "inputs": [
        {
          "internalType": "string",
          "name": "__name",
          "type": "string"
        },
        {
          "internalType": "string",
          "name": "__symbol",
          "type": "string"
        }
      ],
      "stateMutability": "nonpayable",
      "type": "constructor"
    },
    {
      "anonymous": false,
      "inputs": [
        {
          "indexed": true,
          "internalType": "address",
          "name": "owner",
          "type": "address"
        },
        {
          "indexed": true,
          "internalType": "address",
          "name": "approved",
          "type": "address"
        },
        {
          "indexed": true,
          "internalType": "uint256",
          "name": "tokenId",
          "type": "uint256"
        }
      ],
      "name": "Approval",
      "type": "event"
    },
    {
      "anonymous": false,
      "inputs": [
        {
          "indexed": true,
          "internalType": "address",
          "name": "owner",
          "type": "address"
        },
        {
          "indexed": true,
          "internalType": "address",
          "name": "operator",
          "type": "address"
        },
        {
          "indexed": false,
          "internalType": "bool",
          "name": "approved",
          "type": "bool"
        }
      ],
      "name": "ApprovalForAll",
      "type": "event"
    },
    {
      "anonymous": false,
      "inputs": [
        {
          "indexed": false,
          "internalType": "uint256",
          "name": "_tokenId",
          "type": "uint256"
        },
        {
          "indexed": false,
          "internalType": "uint256",
          "name": "_status",
          "type": "uint256"
        },
        {
          "indexed": false,
          "internalType": "uint256",
          "name": "_price",
          "type": "uint256"
        }
      ],
      "name": "LogArtResell",
      "type": "event"
    },
    {
      "anonymous": false,
      "inputs": [
        {
          "indexed": false,
          "internalType": "uint256",
          "name": "_tokenId",
          "type": "uint256"
        },
        {
          "indexed": false,
          "internalType": "string",
          "name": "_title",
          "type": "string"
        },
        {
          "indexed": false,
          "internalType": "string",
          "name": "_authorName",
          "type": "string"
        },
        {
          "indexed": false,
          "internalType": "uint256",
          "name": "_price",
          "type": "uint256"
        },
        {
          "indexed": false,
          "internalType": "address",
          "name": "_author",
          "type": "address"
        },
        {
          "indexed": false,
          "internalType": "address",
          "name": "_current_owner",
          "type": "address"
        },
        {
          "indexed": false,
          "internalType": "address",
          "name": "_buyer",
          "type": "address"
        }
      ],
      "name": "LogArtSold",
      "type": "event"
    },
    {
      "anonymous": false,
      "inputs": [
        {
          "indexed": false,
          "internalType": "uint256",
          "name": "_tokenId",
          "type": "uint256"
        },
        {
          "indexed": false,
          "internalType": "string",
          "name": "_title",
          "type": "string"
        },
        {
          "indexed": false,
          "internalType": "string",
          "name": "_category",
          "type": "string"
        },
        {
          "indexed": false,
          "internalType": "string",
          "name": "_authorName",
          "type": "string"
        },
        {
          "indexed": false,
          "internalType": "uint256",
          "name": "_price",
          "type": "uint256"
        },
        {
          "indexed": false,
          "internalType": "address",
          "name": "_author",
          "type": "address"
        },
        {
          "indexed": false,
          "internalType": "address",
          "name": "_current_owner",
          "type": "address"
        }
      ],
      "name": "LogArtTokenCreate",
      "type": "event"
    },
    {
      "anonymous": false,
      "inputs": [
        {
          "indexed": true,
          "internalType": "address",
          "name": "from",
          "type": "address"
        },
        {
          "indexed": true,
          "internalType": "address",
          "name": "to",
          "type": "address"
        },
        {
          "indexed": true,
          "internalType": "uint256",
          "name": "tokenId",
          "type": "uint256"
        }
      ],
      "name": "Transfer",
      "type": "event"
    },
    {
      "inputs": [
        {
          "internalType": "uint256",
          "name": "",
          "type": "uint256"
        }
      ],
      "name": "arts",
      "outputs": [
        {
          "internalType": "uint256",
          "name": "id",
          "type": "uint256"
        },
        {
          "internalType": "string",
          "name": "title",
          "type": "string"
        },
        {
          "internalType": "string",
          "name": "description",
          "type": "string"
        },
        {
          "internalType": "uint256",
          "name": "price",
          "type": "uint256"
        },
        {
          "internalType": "string",
          "name": "date",
          "type": "string"
        },
        {
          "internalType": "string",
          "name": "authorName",
          "type": "string"
        },
        {
          "internalType": "address payable",
          "name": "author",
          "type": "address"
        },
        {
          "internalType": "address payable",
          "name": "owner",
          "type": "address"
        },
        {
          "internalType": "uint256",
          "name": "status",
          "type": "uint256"
        },
        {
          "internalType": "string",
          "name": "image",
          "type": "string"
        }
      ],
      "stateMutability": "view",
      "type": "function",
      "constant": true
    },
    {
      "inputs": [],
      "name": "index",
      "outputs": [
        {
          "internalType": "uint256",
          "name": "",
          "type": "uint256"
        }
      ],
      "stateMutability": "view",
      "type": "function",
      "constant": true
    },
    {
      "inputs": [],
      "name": "name",
      "outputs": [
        {
          "internalType": "string",
          "name": "",
          "type": "string"
        }
      ],
      "stateMutability": "view",
      "type": "function",
      "constant": true
    },
    {
      "inputs": [],
      "name": "symbol",
      "outputs": [
        {
          "internalType": "string",
          "name": "",
          "type": "string"
        }
      ],
      "stateMutability": "view",
      "type": "function",
      "constant": true
    },
    {
      "inputs": [
        {
          "internalType": "string",
          "name": "_title",
          "type": "string"
        },
        {
          "internalType": "string",
          "name": "_description",
          "type": "string"
        },
        {
          "internalType": "string",
          "name": "_date",
          "type": "string"
        },
        {
          "internalType": "string",
          "name": "_authorName",
          "type": "string"
        },
        {
          "internalType": "uint256",
          "name": "_price",
          "type": "uint256"
        },
        {
          "internalType": "string",
          "name": "_image",
          "type": "string"
        }
      ],
      "name": "createTokenAndSellArt",
      "outputs": [],
      "stateMutability": "nonpayable",
      "type": "function"
    },
    {
      "inputs": [
        {
          "internalType": "uint256",
          "name": "_tokenId",
          "type": "uint256"
        }
      ],
      "name": "buyArt",
      "outputs": [],
      "stateMutability": "payable",
      "type": "function",
      "payable": true
    },
    {
      "inputs": [
        {
          "internalType": "uint256",
          "name": "_tokenId",
          "type": "uint256"
        },
        {
          "internalType": "uint256",
          "name": "_price",
          "type": "uint256"
        }
      ],
      "name": "resellArt",
      "outputs": [],
      "stateMutability": "payable",
      "type": "function",
      "payable": true
    },
    {
      "inputs": [
        {
          "internalType": "uint256",
          "name": "_tokenId",
          "type": "uint256"
        }
      ],
      "name": "findArt",
      "outputs": [
        {
          "internalType": "uint256",
          "name": "",
          "type": "uint256"
        },
        {
          "internalType": "string",
          "name": "",
          "type": "string"
        },
        {
          "internalType": "string",
          "name": "",
          "type": "string"
        },
        {
          "internalType": "uint256",
          "name": "",
          "type": "uint256"
        },
        {
          "internalType": "uint256",
          "name": "status",
          "type": "uint256"
        },
        {
          "internalType": "string",
          "name": "",
          "type": "string"
        },
        {
          "internalType": "string",
          "name": "",
          "type": "string"
        },
        {
          "internalType": "address",
          "name": "",
          "type": "address"
        },
        {
          "internalType": "address payable",
          "name": "",
          "type": "address"
        },
        {
          "internalType": "string",
          "name": "",
          "type": "string"
        }
      ],
      "stateMutability": "view",
      "type": "function",
      "constant": true
    },
    {
      "inputs": [],
      "name": "findAllArt",
      "outputs": [
        {
          "internalType": "uint256[]",
          "name": "",
          "type": "uint256[]"
        },
        {
          "internalType": "address[]",
          "name": "",
          "type": "address[]"
        },
        {
          "internalType": "address[]",
          "name": "",
          "type": "address[]"
        },
        {
          "internalType": "uint256[]",
          "name": "",
          "type": "uint256[]"
        }
      ],
      "stateMutability": "view",
      "type": "function",
      "constant": true
    },
    {
      "inputs": [],
      "name": "findAllPendingArt",
      "outputs": [
        {
          "internalType": "uint256[]",
          "name": "",
          "type": "uint256[]"
        },
        {
          "internalType": "address[]",
          "name": "",
          "type": "address[]"
        },
        {
          "internalType": "address[]",
          "name": "",
          "type": "address[]"
        },
        {
          "internalType": "uint256[]",
          "name": "",
          "type": "uint256[]"
        }
      ],
      "stateMutability": "view",
      "type": "function",
      "constant": true
    },
    {
      "inputs": [],
      "name": "findMyArts",
      "outputs": [
        {
          "internalType": "uint256[]",
          "name": "_myArts",
          "type": "uint256[]"
        }
      ],
      "stateMutability": "view",
      "type": "function",
      "constant": true
    },
    {
      "inputs": [
        {
          "internalType": "uint256",
          "name": "_tokenId",
          "type": "uint256"
        }
      ],
      "name": "getArtAllTxn",
      "outputs": [
        {
          "internalType": "uint256[]",
          "name": "_id",
          "type": "uint256[]"
        },
        {
          "internalType": "uint256[]",
          "name": "_price",
          "type": "uint256[]"
        },
        {
          "internalType": "address[]",
          "name": "seller",
          "type": "address[]"
        },
        {
          "internalType": "address[]",
          "name": "buyer",
          "type": "address[]"
        },
        {
          "internalType": "uint256[]",
          "name": "_txnDate",
          "type": "uint256[]"
        }
      ],
      "stateMutability": "view",
      "type": "function",
      "constant": true
    },
    {
      "inputs": [
        {
          "internalType": "address",
          "name": "_owner",
          "type": "address"
        }
      ],
      "name": "balanceOf",
      "outputs": [
        {
          "internalType": "uint256",
          "name": "",
          "type": "uint256"
        }
      ],
      "stateMutability": "view",
      "type": "function",
      "constant": true
    },
    {
      "inputs": [
        {
          "internalType": "uint256",
          "name": "_tokenId",
          "type": "uint256"
        }
      ],
      "name": "ownerOf",
      "outputs": [
        {
          "internalType": "address",
          "name": "_owner",
          "type": "address"
        }
      ],
      "stateMutability": "view",
      "type": "function",
      "constant": true
    },
    {
      "inputs": [
        {
          "internalType": "address",
          "name": "_to",
          "type": "address"
        },
        {
          "internalType": "uint256",
          "name": "_tokenId",
          "type": "uint256"
        }
      ],
      "name": "approve",
      "outputs": [],
      "stateMutability": "nonpayable",
      "type": "function"
    },
    {
      "inputs": [
        {
          "internalType": "address",
          "name": "_from",
          "type": "address"
        },
        {
          "internalType": "address",
          "name": "_to",
          "type": "address"
        },
        {
          "internalType": "uint256",
          "name": "_tokenId",
          "type": "uint256"
        }
      ],
      "name": "transferFrom",
      "outputs": [],
      "stateMutability": "nonpayable",
      "type": "function"
    },
    {
      "inputs": [
        {
          "internalType": "address",
          "name": "_to",
          "type": "address"
        },
        {
          "internalType": "uint256",
          "name": "_tokenId",
          "type": "uint256"
        }
      ],
      "name": "transfer",
      "outputs": [],
      "stateMutability": "nonpayable",
      "type": "function"
    },
    {
      "inputs": [
        {
          "internalType": "uint256",
          "name": "tokenId",
          "type": "uint256"
        }
      ],
      "name": "getApproved",
      "outputs": [
        {
          "internalType": "address",
          "name": "operator",
          "type": "address"
        }
      ],
      "stateMutability": "view",
      "type": "function",
      "constant": true
    },
    {
      "inputs": [
        {
          "internalType": "address",
          "name": "operator",
          "type": "address"
        },
        {
          "internalType": "bool",
          "name": "_approved",
          "type": "bool"
        }
      ],
      "name": "setApprovalForAll",
      "outputs": [],
      "stateMutability": "nonpayable",
      "type": "function"
    },
    {
      "inputs": [
        {
          "internalType": "address",
          "name": "owner",
          "type": "address"
        },
        {
          "internalType": "address",
          "name": "operator",
          "type": "address"
        }
      ],
      "name": "isApprovedForAll",
      "outputs": [
        {
          "internalType": "bool",
          "name": "",
          "type": "bool"
        }
      ],
      "stateMutability": "view",
      "type": "function",
      "constant": true
    },
    {
      "inputs": [
        {
          "internalType": "address",
          "name": "from",
          "type": "address"
        },
        {
          "internalType": "address",
          "name": "to",
          "type": "address"
        },
        {
          "internalType": "uint256",
          "name": "tokenId",
          "type": "uint256"
        }
      ],
      "name": "safeTransferFrom",
      "outputs": [],
      "stateMutability": "nonpayable",
      "type": "function"
    },
    {
      "inputs": [
        {
          "internalType": "address",
          "name": "from",
          "type": "address"
        },
        {
          "internalType": "address",
          "name": "to",
          "type": "address"
        },
        {
          "internalType": "uint256",
          "name": "tokenId",
          "type": "uint256"
        },
        {
          "internalType": "bytes",
          "name": "data",
          "type": "bytes"
        }
      ],
      "name": "safeTransferFrom",
      "outputs": [],
      "stateMutability": "nonpayable",
      "type": "function"
    },
    {
      "inputs": [
        {
          "internalType": "uint256",
          "name": "tokenId",
          "type": "uint256"
        },
        {
          "internalType": "address",
          "name": "account",
          "type": "address"
        }
      ],
      "name": "isOwnerOf",
      "outputs": [
        {
          "internalType": "bool",
          "name": "",
          "type": "bool"
        }
      ],
      "stateMutability": "view",
      "type": "function",
      "constant": true
    }
  ],
  "bytecode": "0x60806040523480156200001157600080fd5b5060405162004e9938038062004e99833981810160405281019062000037919062000193565b81600090805190602001906200004f92919062000071565b5080600190805190602001906200006892919062000071565b50505062000376565b8280546200007f906200029b565b90600052602060002090601f016020900481019282620000a35760008555620000ef565b82601f10620000be57805160ff1916838001178555620000ef565b82800160010185558215620000ef579182015b82811115620000ee578251825591602001919060010190620000d1565b5b509050620000fe919062000102565b5090565b5b808211156200011d57600081600090555060010162000103565b5090565b60006200013862000132846200022f565b62000206565b9050828152602081018484840111156200015157600080fd5b6200015e84828562000265565b509392505050565b600082601f8301126200017857600080fd5b81516200018a84826020860162000121565b91505092915050565b60008060408385031215620001a757600080fd5b600083015167ffffffffffffffff811115620001c257600080fd5b620001d08582860162000166565b925050602083015167ffffffffffffffff811115620001ee57600080fd5b620001fc8582860162000166565b9150509250929050565b60006200021262000225565b9050620002208282620002d1565b919050565b6000604051905090565b600067ffffffffffffffff8211156200024d576200024c62000336565b5b620002588262000365565b9050602081019050919050565b60005b838110156200028557808201518184015260208101905062000268565b8381111562000295576000848401525b50505050565b60006002820490506001821680620002b457607f821691505b60208210811415620002cb57620002ca62000307565b5b50919050565b620002dc8262000365565b810181811067ffffffffffffffff82111715620002fe57620002fd62000336565b5b80604052505050565b7f4e487b7100000000000000000000000000000000000000000000000000000000600052602260045260246000fd5b7f4e487b7100000000000000000000000000000000000000000000000000000000600052604160045260246000fd5b6000601f19601f8301169050919050565b614b1380620003866000396000f3fe60806040526004361061015d576000357c01000000000000000000000000000000000000000000000000000000009004806395d89b41116100d3578063d2c088021161008c578063d2c088021461048b578063e1925e15146104b6578063e49a3d3b146104f7578063e57a104a14610520578063e985e9c514610566578063fc7a900b146105a35761015d565b806395d89b41146103625780639ac016e21461038d578063a22cb465146103ca578063a9059cbb146103f3578063b88d4fde1461041c578063ce971a10146104455761015d565b80632986c0e5116101255780632986c0e51461024a5780633e54fca11461027557806342842e0e146102a35780636352211e146102cc57806364262dcc1461030957806370a08231146103255761015d565b8063063fc9661461016257806306fdde0314610190578063081812fc146101bb578063095ea7b3146101f857806323b872dd14610221575b600080fd5b34801561016e57600080fd5b506101776105bf565b60405161018794939291906141a5565b60405180910390f35b34801561019c57600080fd5b506101a5610f51565b6040516101b29190614297565b60405180910390f35b3480156101c757600080fd5b506101e260048036038101906101dd9190613e7b565b610fe3565b6040516101ef9190614168565b60405180910390f35b34801561020457600080fd5b5061021f600480360381019061021a9190613d3e565b611032565b005b34801561022d57600080fd5b5061024860048036038101906102439190613c38565b6110f6565b005b34801561025657600080fd5b5061025f611166565b60405161026c9190614359565b60405180910390f35b34801561028157600080fd5b5061028a61116c565b60405161029a94939291906141a5565b60405180910390f35b3480156102af57600080fd5b506102ca60048036038101906102c59190613c38565b6118fe565b005b3480156102d857600080fd5b506102f360048036038101906102ee9190613e7b565b611903565b6040516103009190614168565b60405180910390f35b610323600480360381019061031e9190613ee0565b611940565b005b34801561033157600080fd5b5061034c60048036038101906103479190613bd3565b611a86565b6040516103599190614359565b60405180910390f35b34801561036e57600080fd5b50610377611acf565b6040516103849190614297565b60405180910390f35b34801561039957600080fd5b506103b460048036038101906103af9190613ea4565b611b61565b6040516103c1919061427c565b60405180910390f35b3480156103d657600080fd5b506103f160048036038101906103ec9190613d02565b611c0c565b005b3480156103ff57600080fd5b5061041a60048036038101906104159190613d3e565b611d42565b005b34801561042857600080fd5b50610443600480360381019061043e9190613c87565b611d9e565b005b34801561045157600080fd5b5061046c60048036038101906104679190613e7b565b611da4565b6040516104829a9998979695949392919061456b565b60405180910390f35b34801561049757600080fd5b506104a0612206565b6040516104ad9190614183565b60405180910390f35b3480156104c257600080fd5b506104dd60048036038101906104d89190613e7b565b612434565b6040516104ee959493929190614206565b60405180910390f35b34801561050357600080fd5b5061051e60048036038101906105199190613d7a565b612a13565b005b34801561052c57600080fd5b5061054760048036038101906105429190613e7b565b612def565b60405161055d9a999897969594939291906144ac565b60405180910390f35b34801561057257600080fd5b5061058d60048036038101906105889190613bfc565b61313b565b60405161059a919061427c565b60405180910390f35b6105bd60048036038101906105b89190613e7b565b6131cf565b005b6060806060806000600354141561079d57600067ffffffffffffffff811115610611577f4e487b7100000000000000000000000000000000000000000000000000000000600052604160045260246000fd5b60405190808252806020026020018201604052801561063f5781602001602082028036833780820191505090505b50600067ffffffffffffffff811115610681577f4e487b7100000000000000000000000000000000000000000000000000000000600052604160045260246000fd5b6040519080825280602002602001820160405280156106af5781602001602082028036833780820191505090505b50600067ffffffffffffffff8111156106f1577f4e487b7100000000000000000000000000000000000000000000000000000000600052604160045260246000fd5b60405190808252806020026020018201604052801561071f5781602001602082028036833780820191505090505b50600067ffffffffffffffff811115610761577f4e487b7100000000000000000000000000000000000000000000000000000000600052604160045260246000fd5b60405190808252806020026020018201604052801561078f5781602001602082028036833780820191505090505b509350935093509350610f4b565b60006002805490509050600060035467ffffffffffffffff8111156107eb577f4e487b7100000000000000000000000000000000000000000000000000000000600052604160045260246000fd5b6040519080825280602002602001820160405280156108195781602001602082028036833780820191505090505b509050600060035467ffffffffffffffff811115610860577f4e487b7100000000000000000000000000000000000000000000000000000000600052604160045260246000fd5b60405190808252806020026020018201604052801561088e5781602001602082028036833780820191505090505b509050600060035467ffffffffffffffff8111156108d5577f4e487b7100000000000000000000000000000000000000000000000000000000600052604160045260246000fd5b6040519080825280602002602001820160405280156109035781602001602082028036833780820191505090505b509050600060035467ffffffffffffffff81111561094a577f4e487b7100000000000000000000000000000000000000000000000000000000600052604160045260246000fd5b6040519080825280602002602001820160405280156109785781602001602082028036833780820191505090505b5090506000805b86811015610f37576000600282815481106109c3577f4e487b7100000000000000000000000000000000000000000000000000000000600052603260045260246000fd5b90600052602060002090600a020160405180610140016040529081600082015481526020016001820180546109f790614881565b80601f0160208091040260200160405190810160405280929190818152602001828054610a2390614881565b8015610a705780601f10610a4557610100808354040283529160200191610a70565b820191906000526020600020905b815481529060010190602001808311610a5357829003601f168201915b50505050508152602001600282018054610a8990614881565b80601f0160208091040260200160405190810160405280929190818152602001828054610ab590614881565b8015610b025780601f10610ad757610100808354040283529160200191610b02565b820191906000526020600020905b815481529060010190602001808311610ae557829003601f168201915b5050505050815260200160038201548152602001600482018054610b2590614881565b80601f0160208091040260200160405190810160405280929190818152602001828054610b5190614881565b8015610b9e5780601f10610b7357610100808354040283529160200191610b9e565b820191906000526020600020905b815481529060010190602001808311610b8157829003601f168201915b50505050508152602001600582018054610bb790614881565b80601f0160208091040260200160405190810160405280929190818152602001828054610be390614881565b8015610c305780601f10610c0557610100808354040283529160200191610c30565b820191906000526020600020905b815481529060010190602001808311610c1357829003601f168201915b505050505081526020016006820160009054906101000a900473ffffffffffffffffffffffffffffffffffffffff1673ffffffffffffffffffffffffffffffffffffffff1673ffffffffffffffffffffffffffffffffffffffff1681526020016007820160009054906101000a900473ffffffffffffffffffffffffffffffffffffffff1673ffffffffffffffffffffffffffffffffffffffff1673ffffffffffffffffffffffffffffffffffffffff16815260200160088201548152602001600982018054610cff90614881565b80601f0160208091040260200160405190810160405280929190818152602001828054610d2b90614881565b8015610d785780601f10610d4d57610100808354040283529160200191610d78565b820191906000526020600020905b815481529060010190602001808311610d5b57829003601f168201915b505050505081525050905060018161010001511415610f25578060000151878481518110610dcf577f4e487b7100000000000000000000000000000000000000000000000000000000600052603260045260246000fd5b6020026020010181815250508060c00151868481518110610e19577f4e487b7100000000000000000000000000000000000000000000000000000000600052603260045260246000fd5b602002602001019073ffffffffffffffffffffffffffffffffffffffff16908173ffffffffffffffffffffffffffffffffffffffff16815250508060e00151858481518110610e91577f4e487b7100000000000000000000000000000000000000000000000000000000600052603260045260246000fd5b602002602001019073ffffffffffffffffffffffffffffffffffffffff16908173ffffffffffffffffffffffffffffffffffffffff1681525050806101000151848481518110610f0a577f4e487b7100000000000000000000000000000000000000000000000000000000600052603260045260246000fd5b6020026020010181815250508280610f21906148e4565b9350505b5080610f30906148e4565b905061097f565b508484848499509950995099505050505050505b90919293565b606060008054610f6090614881565b80601f0160208091040260200160405190810160405280929190818152602001828054610f8c90614881565b8015610fd95780601f10610fae57610100808354040283529160200191610fd9565b820191906000526020600020905b815481529060010190602001808311610fbc57829003601f168201915b5050505050905090565b6000610fee82613693565b610ff757600080fd5b6006600083815260200190815260200160002060009054906101000a900473ffffffffffffffffffffffffffffffffffffffff169050919050565b61103c8133611b61565b61104557600080fd5b816006600083815260200190815260200160002060006101000a81548173ffffffffffffffffffffffffffffffffffffffff021916908373ffffffffffffffffffffffffffffffffffffffff160217905550808273ffffffffffffffffffffffffffffffffffffffff163373ffffffffffffffffffffffffffffffffffffffff167f8c5be1e5ebec7d5bd14f71427d1e84f3dd0314c0f7b2291e5b200ac8c7c3b92560405160405180910390a45050565b600073ffffffffffffffffffffffffffffffffffffffff168273ffffffffffffffffffffffffffffffffffffffff16141561113057600080fd5b61113a8184611b61565b61114357600080fd5b61114d8282613705565b61115657600080fd5b611161838383613771565b505050565b60095481565b6060806060806000600280549050905060008167ffffffffffffffff8111156111be577f4e487b7100000000000000000000000000000000000000000000000000000000600052604160045260246000fd5b6040519080825280602002602001820160405280156111ec5781602001602082028036833780820191505090505b50905060008267ffffffffffffffff811115611231577f4e487b7100000000000000000000000000000000000000000000000000000000600052604160045260246000fd5b60405190808252806020026020018201604052801561125f5781602001602082028036833780820191505090505b50905060008367ffffffffffffffff8111156112a4577f4e487b7100000000000000000000000000000000000000000000000000000000600052604160045260246000fd5b6040519080825280602002602001820160405280156112d25781602001602082028036833780820191505090505b50905060008467ffffffffffffffff811115611317577f4e487b7100000000000000000000000000000000000000000000000000000000600052604160045260246000fd5b6040519080825280602002602001820160405280156113455781602001602082028036833780820191505090505b50905060005b858110156118e65760006002828154811061138f577f4e487b7100000000000000000000000000000000000000000000000000000000600052603260045260246000fd5b90600052602060002090600a020160405180610140016040529081600082015481526020016001820180546113c390614881565b80601f01602080910402602001604051908101604052809291908181526020018280546113ef90614881565b801561143c5780601f106114115761010080835404028352916020019161143c565b820191906000526020600020905b81548152906001019060200180831161141f57829003601f168201915b5050505050815260200160028201805461145590614881565b80601f016020809104026020016040519081016040528092919081815260200182805461148190614881565b80156114ce5780601f106114a3576101008083540402835291602001916114ce565b820191906000526020600020905b8154815290600101906020018083116114b157829003601f168201915b50505050508152602001600382015481526020016004820180546114f190614881565b80601f016020809104026020016040519081016040528092919081815260200182805461151d90614881565b801561156a5780601f1061153f5761010080835404028352916020019161156a565b820191906000526020600020905b81548152906001019060200180831161154d57829003601f168201915b5050505050815260200160058201805461158390614881565b80601f01602080910402602001604051908101604052809291908181526020018280546115af90614881565b80156115fc5780601f106115d1576101008083540402835291602001916115fc565b820191906000526020600020905b8154815290600101906020018083116115df57829003601f168201915b505050505081526020016006820160009054906101000a900473ffffffffffffffffffffffffffffffffffffffff1673ffffffffffffffffffffffffffffffffffffffff1673ffffffffffffffffffffffffffffffffffffffff1681526020016007820160009054906101000a900473ffffffffffffffffffffffffffffffffffffffff1673ffffffffffffffffffffffffffffffffffffffff1673ffffffffffffffffffffffffffffffffffffffff168152602001600882015481526020016009820180546116cb90614881565b80601f01602080910402602001604051908101604052809291908181526020018280546116f790614881565b80156117445780601f1061171957610100808354040283529160200191611744565b820191906000526020600020905b81548152906001019060200180831161172757829003601f168201915b5050505050815250509050806000015186838151811061178d577f4e487b7100000000000000000000000000000000000000000000000000000000600052603260045260246000fd5b6020026020010181815250508060c001518583815181106117d7577f4e487b7100000000000000000000000000000000000000000000000000000000600052603260045260246000fd5b602002602001019073ffffffffffffffffffffffffffffffffffffffff16908173ffffffffffffffffffffffffffffffffffffffff16815250508060e0015184838151811061184f577f4e487b7100000000000000000000000000000000000000000000000000000000600052603260045260246000fd5b602002602001019073ffffffffffffffffffffffffffffffffffffffff16908173ffffffffffffffffffffffffffffffffffffffff16815250508061010001518383815181106118c8577f4e487b7100000000000000000000000000000000000000000000000000000000600052603260045260246000fd5b60200260200101818152505050806118df906148e4565b905061134b565b50838383839850985098509850505050505090919293565b505050565b60006004600083815260200190815260200160002060009054906101000a900473ffffffffffffffffffffffffffffffffffffffff169050919050565b600073ffffffffffffffffffffffffffffffffffffffff163373ffffffffffffffffffffffffffffffffffffffff16141561197a57600080fd5b6119848233611b61565b61198d57600080fd5b6001600283815481106119c9577f4e487b7100000000000000000000000000000000000000000000000000000000600052603260045260246000fd5b90600052602060002090600a0201600801819055508060028381548110611a19577f4e487b7100000000000000000000000000000000000000000000000000000000600052603260045260246000fd5b90600052602060002090600a02016003018190555060036000815480929190611a41906148e4565b91905055507f8916ae292317d6f324a5ed02fea84bf6881d4065b6d575a8980442469b882b7a82600183604051611a7a93929190614374565b60405180910390a15050565b6000600560008373ffffffffffffffffffffffffffffffffffffffff1673ffffffffffffffffffffffffffffffffffffffff168152602001908152602001600020549050919050565b606060018054611ade90614881565b80601f0160208091040260200160405190810160405280929190818152602001828054611b0a90614881565b8015611b575780601f10611b2c57610100808354040283529160200191611b57565b820191906000526020600020905b815481529060010190602001808311611b3a57829003601f168201915b5050505050905090565b6000806004600085815260200190815260200160002060009054906101000a900473ffffffffffffffffffffffffffffffffffffffff169050600073ffffffffffffffffffffffffffffffffffffffff168173ffffffffffffffffffffffffffffffffffffffff161415611bd457600080fd5b8273ffffffffffffffffffffffffffffffffffffffff168173ffffffffffffffffffffffffffffffffffffffff161491505092915050565b3373ffffffffffffffffffffffffffffffffffffffff168273ffffffffffffffffffffffffffffffffffffffff161415611c4557600080fd5b80600760003373ffffffffffffffffffffffffffffffffffffffff1673ffffffffffffffffffffffffffffffffffffffff16815260200190815260200160002060008473ffffffffffffffffffffffffffffffffffffffff1673ffffffffffffffffffffffffffffffffffffffff16815260200190815260200160002060006101000a81548160ff0219169083151502179055508173ffffffffffffffffffffffffffffffffffffffff163373ffffffffffffffffffffffffffffffffffffffff167f17307eab39ab6107e8899845ad3d59bd9653f200f220920489ca2b5937696c3183604051611d36919061427c565b60405180910390a35050565b600073ffffffffffffffffffffffffffffffffffffffff168273ffffffffffffffffffffffffffffffffffffffff161415611d7c57600080fd5b611d868133611b61565b611d8f57600080fd5b611d9a338383613771565b5050565b50505050565b60006060806000806060806000806060600060028c81548110611df0577f4e487b7100000000000000000000000000000000000000000000000000000000600052603260045260246000fd5b90600052602060002090600a02016040518061014001604052908160008201548152602001600182018054611e2490614881565b80601f0160208091040260200160405190810160405280929190818152602001828054611e5090614881565b8015611e9d5780601f10611e7257610100808354040283529160200191611e9d565b820191906000526020600020905b815481529060010190602001808311611e8057829003601f168201915b50505050508152602001600282018054611eb690614881565b80601f0160208091040260200160405190810160405280929190818152602001828054611ee290614881565b8015611f2f5780601f10611f0457610100808354040283529160200191611f2f565b820191906000526020600020905b815481529060010190602001808311611f1257829003601f168201915b5050505050815260200160038201548152602001600482018054611f5290614881565b80601f0160208091040260200160405190810160405280929190818152602001828054611f7e90614881565b8015611fcb5780601f10611fa057610100808354040283529160200191611fcb565b820191906000526020600020905b815481529060010190602001808311611fae57829003601f168201915b50505050508152602001600582018054611fe490614881565b80601f016020809104026020016040519081016040528092919081815260200182805461201090614881565b801561205d5780601f106120325761010080835404028352916020019161205d565b820191906000526020600020905b81548152906001019060200180831161204057829003601f168201915b505050505081526020016006820160009054906101000a900473ffffffffffffffffffffffffffffffffffffffff1673ffffffffffffffffffffffffffffffffffffffff1673ffffffffffffffffffffffffffffffffffffffff1681526020016007820160009054906101000a900473ffffffffffffffffffffffffffffffffffffffff1673ffffffffffffffffffffffffffffffffffffffff1673ffffffffffffffffffffffffffffffffffffffff1681526020016008820154815260200160098201805461212c90614881565b80601f016020809104026020016040519081016040528092919081815260200182805461215890614881565b80156121a55780601f1061217a576101008083540402835291602001916121a5565b820191906000526020600020905b81548152906001019060200180831161218857829003601f168201915b5050505050815250509050806000015181602001518260400151836060015184610100015185608001518660a001518760c001518860e001518961012001519a509a509a509a509a509a509a509a509a509a50509193959799509193959799565b6060600073ffffffffffffffffffffffffffffffffffffffff163373ffffffffffffffffffffffffffffffffffffffff16141561224257600080fd5b600061224d33611a86565b905060008114156122d057600067ffffffffffffffff811115612299577f4e487b7100000000000000000000000000000000000000000000000000000000600052604160045260246000fd5b6040519080825280602002602001820160405280156122c75781602001602082028036833780820191505090505b50915050612431565b60008167ffffffffffffffff811115612312577f4e487b7100000000000000000000000000000000000000000000000000000000600052604160045260246000fd5b6040519080825280602002602001820160405280156123405781602001602082028036833780820191505090505b509050600080600280549050905060005b81811015612428573373ffffffffffffffffffffffffffffffffffffffff166004600083815260200190815260200160002060009054906101000a900473ffffffffffffffffffffffffffffffffffffffff1673ffffffffffffffffffffffffffffffffffffffff16141561241557808484815181106123fa577f4e487b7100000000000000000000000000000000000000000000000000000000600052603260045260246000fd5b6020026020010181815250508280612411906148e4565b9350505b8080612420906148e4565b915050612351565b50829450505050505b90565b6060806060806060600060086000888152602001908152602001600020805480602002602001604051908101604052809291908181526020016000905b8282101561257757838290600052602060002090600602016040518060c001604052908160008201548152602001600182015481526020016002820160009054906101000a900473ffffffffffffffffffffffffffffffffffffffff1673ffffffffffffffffffffffffffffffffffffffff1673ffffffffffffffffffffffffffffffffffffffff1681526020016003820160009054906101000a900473ffffffffffffffffffffffffffffffffffffffff1673ffffffffffffffffffffffffffffffffffffffff1673ffffffffffffffffffffffffffffffffffffffff1681526020016004820154815260200160058201548152505081526020019060010190612471565b50505050905060008151905060008167ffffffffffffffff8111156125c5577f4e487b7100000000000000000000000000000000000000000000000000000000600052604160045260246000fd5b6040519080825280602002602001820160405280156125f35781602001602082028036833780820191505090505b50905060008267ffffffffffffffff811115612638577f4e487b7100000000000000000000000000000000000000000000000000000000600052604160045260246000fd5b6040519080825280602002602001820160405280156126665781602001602082028036833780820191505090505b50905060008367ffffffffffffffff8111156126ab577f4e487b7100000000000000000000000000000000000000000000000000000000600052604160045260246000fd5b6040519080825280602002602001820160405280156126d95781602001602082028036833780820191505090505b50905060008467ffffffffffffffff81111561271e577f4e487b7100000000000000000000000000000000000000000000000000000000600052604160045260246000fd5b60405190808252806020026020018201604052801561274c5781602001602082028036833780820191505090505b50905060008567ffffffffffffffff811115612791577f4e487b7100000000000000000000000000000000000000000000000000000000600052604160045260246000fd5b6040519080825280602002602001820160405280156127bf5781602001602082028036833780820191505090505b50905060005b87518110156129f3576000888281518110612809577f4e487b7100000000000000000000000000000000000000000000000000000000600052603260045260246000fd5b602002602001015190508060000151878381518110612851577f4e487b7100000000000000000000000000000000000000000000000000000000600052603260045260246000fd5b602002602001018181525050806020015186838151811061289b577f4e487b7100000000000000000000000000000000000000000000000000000000600052603260045260246000fd5b60200260200101818152505080604001518583815181106128e5577f4e487b7100000000000000000000000000000000000000000000000000000000600052603260045260246000fd5b602002602001019073ffffffffffffffffffffffffffffffffffffffff16908173ffffffffffffffffffffffffffffffffffffffff1681525050806060015184838151811061295d577f4e487b7100000000000000000000000000000000000000000000000000000000600052603260045260246000fd5b602002602001019073ffffffffffffffffffffffffffffffffffffffff16908173ffffffffffffffffffffffffffffffffffffffff168152505080608001518383815181106129d5577f4e487b7100000000000000000000000000000000000000000000000000000000600052603260045260246000fd5b60200260200101818152505050806129ec906148e4565b90506127c5565b5084848484849b509b509b509b509b505050505050505091939590929450565b6000865111612a57576040517f08c379a0000000000000000000000000000000000000000000000000000000008152600401612a4e906142b9565b60405180910390fd5b6000845111612a9b576040517f08c379a0000000000000000000000000000000000000000000000000000000008152600401612a92906142f9565b60405180910390fd5b6000855111612adf576040517f08c379a0000000000000000000000000000000000000000000000000000000008152600401612ad690614319565b60405180910390fd5b60008211612b22576040517f08c379a0000000000000000000000000000000000000000000000000000000008152600401612b1990614339565b60405180910390fd5b6000815111612b66576040517f08c379a0000000000000000000000000000000000000000000000000000000008152600401612b5d906142d9565b60405180910390fd5b6000339050600060405180610140016040528060095481526020018981526020018881526020018581526020018781526020018681526020018373ffffffffffffffffffffffffffffffffffffffff1681526020018373ffffffffffffffffffffffffffffffffffffffff1681526020016001815260200184815250905060028190806001815401808255809150506001900390600052602060002090600a0201600090919091909150600082015181600001556020820151816001019080519060200190612c36929190613a21565b506040820151816002019080519060200190612c53929190613a21565b50606082015181600301556080820151816004019080519060200190612c7a929190613a21565b5060a0820151816005019080519060200190612c97929190613a21565b5060c08201518160060160006101000a81548173ffffffffffffffffffffffffffffffffffffffff021916908373ffffffffffffffffffffffffffffffffffffffff16021790555060e08201518160070160006101000a81548173ffffffffffffffffffffffffffffffffffffffff021916908373ffffffffffffffffffffffffffffffffffffffff1602179055506101008201518160080155610120820151816009019080519060200190612d4e929190613a21565b50505060006001600280549050612d65919061473f565b9050612d7133826138cd565b7ff376cc32e072d5cce6d2829c66b30d30fa0bd8fccda5e8fc27dab25430505715818a8989893333604051612dac97969594939291906143ab565b60405180910390a160096000815480929190612dc7906148e4565b919050555060036000815480929190612ddf906148e4565b9190505550505050505050505050565b60028181548110612dff57600080fd5b90600052602060002090600a0201600091509050806000015490806001018054612e2890614881565b80601f0160208091040260200160405190810160405280929190818152602001828054612e5490614881565b8015612ea15780601f10612e7657610100808354040283529160200191612ea1565b820191906000526020600020905b815481529060010190602001808311612e8457829003601f168201915b505050505090806002018054612eb690614881565b80601f0160208091040260200160405190810160405280929190818152602001828054612ee290614881565b8015612f2f5780601f10612f0457610100808354040283529160200191612f2f565b820191906000526020600020905b815481529060010190602001808311612f1257829003601f168201915b505050505090806003015490806004018054612f4a90614881565b80601f0160208091040260200160405190810160405280929190818152602001828054612f7690614881565b8015612fc35780601f10612f9857610100808354040283529160200191612fc3565b820191906000526020600020905b815481529060010190602001808311612fa657829003601f168201915b505050505090806005018054612fd890614881565b80601f016020809104026020016040519081016040528092919081815260200182805461300490614881565b80156130515780601f1061302657610100808354040283529160200191613051565b820191906000526020600020905b81548152906001019060200180831161303457829003601f168201915b5050505050908060060160009054906101000a900473ffffffffffffffffffffffffffffffffffffffff16908060070160009054906101000a900473ffffffffffffffffffffffffffffffffffffffff16908060080154908060090180546130b890614881565b80601f01602080910402602001604051908101604052809291908181526020018280546130e490614881565b80156131315780601f1061310657610100808354040283529160200191613131565b820191906000526020600020905b81548152906001019060200180831161311457829003601f168201915b505050505090508a565b6000600760008473ffffffffffffffffffffffffffffffffffffffff1673ffffffffffffffffffffffffffffffffffffffff16815260200190815260200160002060008373ffffffffffffffffffffffffffffffffffffffff1673ffffffffffffffffffffffffffffffffffffffff16815260200190815260200160002060009054906101000a900460ff16905092915050565b60008060008060008060006131e388611da4565b5098509850985050975097505096509650600073ffffffffffffffffffffffffffffffffffffffff168173ffffffffffffffffffffffffffffffffffffffff16141561322e57600080fd5b600073ffffffffffffffffffffffffffffffffffffffff163373ffffffffffffffffffffffffffffffffffffffff16141561326857600080fd5b8073ffffffffffffffffffffffffffffffffffffffff163373ffffffffffffffffffffffffffffffffffffffff1614156132a157600080fd5b843410156132ae57600080fd5b600073ffffffffffffffffffffffffffffffffffffffff1660028981548110613300577f4e487b7100000000000000000000000000000000000000000000000000000000600052603260045260246000fd5b90600052602060002090600a020160070160009054906101000a900473ffffffffffffffffffffffffffffffffffffffff1673ffffffffffffffffffffffffffffffffffffffff16141561335357600080fd5b61335e81338a613771565b843411156133b9573373ffffffffffffffffffffffffffffffffffffffff166108fc863461338c919061473f565b9081150290604051600060405180830381858888f193505050501580156133b7573d6000803e3d6000fd5b505b8073ffffffffffffffffffffffffffffffffffffffff166108fc869081150290604051600060405180830381858888f193505050501580156133ff573d6000803e3d6000fd5b50336002898154811061343b577f4e487b7100000000000000000000000000000000000000000000000000000000600052603260045260246000fd5b90600052602060002090600a020160070160006101000a81548173ffffffffffffffffffffffffffffffffffffffff021916908373ffffffffffffffffffffffffffffffffffffffff1602179055506000600289815481106134c6577f4e487b7100000000000000000000000000000000000000000000000000000000600052603260045260246000fd5b90600052602060002090600a02016008018190555060006040518060c001604052808981526020018781526020018373ffffffffffffffffffffffffffffffffffffffff1681526020013373ffffffffffffffffffffffffffffffffffffffff16815260200142815260200186815250905060086000898152602001908152602001600020819080600181540180825580915050600190039060005260206000209060060201600090919091909150600082015181600001556020820151816001015560408201518160020160006101000a81548173ffffffffffffffffffffffffffffffffffffffff021916908373ffffffffffffffffffffffffffffffffffffffff16021790555060608201518160030160006101000a81548173ffffffffffffffffffffffffffffffffffffffff021916908373ffffffffffffffffffffffffffffffffffffffff1602179055506080820151816004015560a0820151816005015550506003600081548092919061364090614857565b91905055507f33157a2d6e087f53ff6fc0edba4550aa6df53452ece435476cd3ab334ad50c3489888689878733604051613680979695949392919061442f565b60405180910390a1505050505050505050565b6000806004600084815260200190815260200160002060009054906101000a900473ffffffffffffffffffffffffffffffffffffffff169050600073ffffffffffffffffffffffffffffffffffffffff168173ffffffffffffffffffffffffffffffffffffffff161415915050919050565b60008273ffffffffffffffffffffffffffffffffffffffff166006600084815260200190815260200160002060009054906101000a900473ffffffffffffffffffffffffffffffffffffffff1673ffffffffffffffffffffffffffffffffffffffff1614905092915050565b600560008373ffffffffffffffffffffffffffffffffffffffff1673ffffffffffffffffffffffffffffffffffffffff16815260200190815260200160002060008154809291906137c1906148e4565b9190505550600560008473ffffffffffffffffffffffffffffffffffffffff1673ffffffffffffffffffffffffffffffffffffffff168152602001908152602001600020600081548092919061381690614857565b9190505550816004600083815260200190815260200160002060006101000a81548173ffffffffffffffffffffffffffffffffffffffff021916908373ffffffffffffffffffffffffffffffffffffffff160217905550808273ffffffffffffffffffffffffffffffffffffffff168473ffffffffffffffffffffffffffffffffffffffff167fddf252ad1be2c89b69c2b068fc378daa952ba7f163c4a11628f55a4df523b3ef60405160405180910390a4505050565b600073ffffffffffffffffffffffffffffffffffffffff168273ffffffffffffffffffffffffffffffffffffffff16141561390757600080fd5b61391081613693565b1561391a57600080fd5b816004600083815260200190815260200160002060006101000a81548173ffffffffffffffffffffffffffffffffffffffff021916908373ffffffffffffffffffffffffffffffffffffffff160217905550600560008373ffffffffffffffffffffffffffffffffffffffff1673ffffffffffffffffffffffffffffffffffffffff16815260200190815260200160002060008154809291906139bc906148e4565b9190505550808273ffffffffffffffffffffffffffffffffffffffff16600073ffffffffffffffffffffffffffffffffffffffff167fddf252ad1be2c89b69c2b068fc378daa952ba7f163c4a11628f55a4df523b3ef60405160405180910390a45050565b828054613a2d90614881565b90600052602060002090601f016020900481019282613a4f5760008555613a96565b82601f10613a6857805160ff1916838001178555613a96565b82800160010185558215613a96579182015b82811115613a95578251825591602001919060010190613a7a565b5b509050613aa39190613aa7565b5090565b5b80821115613ac0576000816000905550600101613aa8565b5090565b6000613ad7613ad28461464f565b61462a565b905082815260208101848484011115613aef57600080fd5b613afa848285614815565b509392505050565b6000613b15613b1084614680565b61462a565b905082815260208101848484011115613b2d57600080fd5b613b38848285614815565b509392505050565b600081359050613b4f81614a98565b92915050565b600081359050613b6481614aaf565b92915050565b600082601f830112613b7b57600080fd5b8135613b8b848260208601613ac4565b91505092915050565b600082601f830112613ba557600080fd5b8135613bb5848260208601613b02565b91505092915050565b600081359050613bcd81614ac6565b92915050565b600060208284031215613be557600080fd5b6000613bf384828501613b40565b91505092915050565b60008060408385031215613c0f57600080fd5b6000613c1d85828601613b40565b9250506020613c2e85828601613b40565b9150509250929050565b600080600060608486031215613c4d57600080fd5b6000613c5b86828701613b40565b9350506020613c6c86828701613b40565b9250506040613c7d86828701613bbe565b9150509250925092565b60008060008060808587031215613c9d57600080fd5b6000613cab87828801613b40565b9450506020613cbc87828801613b40565b9350506040613ccd87828801613bbe565b925050606085013567ffffffffffffffff811115613cea57600080fd5b613cf687828801613b6a565b91505092959194509250565b60008060408385031215613d1557600080fd5b6000613d2385828601613b40565b9250506020613d3485828601613b55565b9150509250929050565b60008060408385031215613d5157600080fd5b6000613d5f85828601613b40565b9250506020613d7085828601613bbe565b9150509250929050565b60008060008060008060c08789031215613d9357600080fd5b600087013567ffffffffffffffff811115613dad57600080fd5b613db989828a01613b94565b965050602087013567ffffffffffffffff811115613dd657600080fd5b613de289828a01613b94565b955050604087013567ffffffffffffffff811115613dff57600080fd5b613e0b89828a01613b94565b945050606087013567ffffffffffffffff811115613e2857600080fd5b613e3489828a01613b94565b9350506080613e4589828a01613bbe565b92505060a087013567ffffffffffffffff811115613e6257600080fd5b613e6e89828a01613b94565b9150509295509295509295565b600060208284031215613e8d57600080fd5b6000613e9b84828501613bbe565b91505092915050565b60008060408385031215613eb757600080fd5b6000613ec585828601613bbe565b9250506020613ed685828601613b40565b9150509250929050565b60008060408385031215613ef357600080fd5b6000613f0185828601613bbe565b9250506020613f1285828601613bbe565b9150509250929050565b6000613f288383613f6a565b60208301905092915050565b6000613f40838361414a565b60208301905092915050565b613f55816147cd565b82525050565b613f6481614785565b82525050565b613f7381614773565b82525050565b613f8281614773565b82525050565b6000613f93826146d1565b613f9d818561470c565b9350613fa8836146b1565b8060005b83811015613fd9578151613fc08882613f1c565b9750613fcb836146f2565b925050600181019050613fac565b5085935050505092915050565b6000613ff1826146dc565b613ffb818561471d565b9350614006836146c1565b8060005b8381101561403757815161401e8882613f34565b9750614029836146ff565b92505060018101905061400a565b5085935050505092915050565b61404d81614797565b82525050565b61405c816147df565b82525050565b600061406d826146e7565b614077818561472e565b9350614087818560208601614824565b614090816149ba565b840191505092915050565b60006140a860198361472e565b91506140b3826149cb565b602082019050919050565b60006140cb60198361472e565b91506140d6826149f4565b602082019050919050565b60006140ee60188361472e565b91506140f982614a1d565b602082019050919050565b6000614111601f8361472e565b915061411c82614a46565b602082019050919050565b600061413460198361472e565b915061413f82614a6f565b602082019050919050565b614153816147c3565b82525050565b614162816147c3565b82525050565b600060208201905061417d6000830184613f79565b92915050565b6000602082019050818103600083015261419d8184613fe6565b905092915050565b600060808201905081810360008301526141bf8187613fe6565b905081810360208301526141d38186613f88565b905081810360408301526141e78185613f88565b905081810360608301526141fb8184613fe6565b905095945050505050565b600060a08201905081810360008301526142208188613fe6565b905081810360208301526142348187613fe6565b905081810360408301526142488186613f88565b9050818103606083015261425c8185613f88565b905081810360808301526142708184613fe6565b90509695505050505050565b60006020820190506142916000830184614044565b92915050565b600060208201905081810360008301526142b18184614062565b905092915050565b600060208201905081810360008301526142d28161409b565b9050919050565b600060208201905081810360008301526142f2816140be565b9050919050565b60006020820190508181036000830152614312816140e1565b9050919050565b6000602082019050818103600083015261433281614104565b9050919050565b6000602082019050818103600083015261435281614127565b9050919050565b600060208201905061436e6000830184614159565b92915050565b60006060820190506143896000830186614159565b6143966020830185614053565b6143a36040830184614159565b949350505050565b600060e0820190506143c0600083018a614159565b81810360208301526143d28189614062565b905081810360408301526143e68188614062565b905081810360608301526143fa8187614062565b90506144096080830186614159565b61441660a0830185613f79565b61442360c0830184613f79565b98975050505050505050565b600060e082019050614444600083018a614159565b81810360208301526144568189614062565b9050818103604083015261446a8188614062565b90506144796060830187614159565b6144866080830186613f79565b61449360a0830185613f4c565b6144a060c0830184613f79565b98975050505050505050565b6000610140820190506144c2600083018d614159565b81810360208301526144d4818c614062565b905081810360408301526144e8818b614062565b90506144f7606083018a614159565b81810360808301526145098189614062565b905081810360a083015261451d8188614062565b905061452c60c0830187613f5b565b61453960e0830186613f5b565b614547610100830185614159565b81810361012083015261455a8184614062565b90509b9a5050505050505050505050565b600061014082019050614581600083018d614159565b8181036020830152614593818c614062565b905081810360408301526145a7818b614062565b90506145b6606083018a614159565b6145c36080830189614159565b81810360a08301526145d58188614062565b905081810360c08301526145e98187614062565b90506145f860e0830186613f79565b614606610100830185613f5b565b8181036101208301526146198184614062565b90509b9a5050505050505050505050565b6000614634614645565b905061464082826148b3565b919050565b6000604051905090565b600067ffffffffffffffff82111561466a5761466961498b565b5b614673826149ba565b9050602081019050919050565b600067ffffffffffffffff82111561469b5761469a61498b565b5b6146a4826149ba565b9050602081019050919050565b6000819050602082019050919050565b6000819050602082019050919050565b600081519050919050565b600081519050919050565b600081519050919050565b6000602082019050919050565b6000602082019050919050565b600082825260208201905092915050565b600082825260208201905092915050565b600082825260208201905092915050565b600061474a826147c3565b9150614755836147c3565b9250828210156147685761476761492d565b5b828203905092915050565b600061477e826147a3565b9050919050565b6000614790826147a3565b9050919050565b60008115159050919050565b600073ffffffffffffffffffffffffffffffffffffffff82169050919050565b6000819050919050565b60006147d8826147f1565b9050919050565b60006147ea826147c3565b9050919050565b60006147fc82614803565b9050919050565b600061480e826147a3565b9050919050565b82818337600083830152505050565b60005b83811015614842578082015181840152602081019050614827565b83811115614851576000848401525b50505050565b6000614862826147c3565b915060008214156148765761487561492d565b5b600182039050919050565b6000600282049050600182168061489957607f821691505b602082108114156148ad576148ac61495c565b5b50919050565b6148bc826149ba565b810181811067ffffffffffffffff821117156148db576148da61498b565b5b80604052505050565b60006148ef826147c3565b91507fffffffffffffffffffffffffffffffffffffffffffffffffffffffffffffffff8214156149225761492161492d565b5b600182019050919050565b7f4e487b7100000000000000000000000000000000000000000000000000000000600052601160045260246000fd5b7f4e487b7100000000000000000000000000000000000000000000000000000000600052602260045260246000fd5b7f4e487b7100000000000000000000000000000000000000000000000000000000600052604160045260246000fd5b6000601f19601f8301169050919050565b7f546865207469746c652063616e6e6f7420626520656d70747900000000000000600082015250565b7f54686520696d6167652063616e6e6f7420626520656d70747900000000000000600082015250565b7f54686520446174652063616e6e6f7420626520656d7074790000000000000000600082015250565b7f546865206465736372697074696f6e2063616e6e6f7420626520656d70747900600082015250565b7f5468652070726963652063616e6e6f7420626520656d70747900000000000000600082015250565b614aa181614773565b8114614aac57600080fd5b50565b614ab881614797565b8114614ac357600080fd5b50565b614acf816147c3565b8114614ada57600080fd5b5056fea26469706673582212200117833d909af212856b4f40cc0d07a988792699ad8c0e2719a61f3b3d61ae2464736f6c63430008040033",
  "immutableReferences": {},
  "source": "// \"SPDX-License-Identifier: UNLICENSED\" \n/**\n * The DigitalArt ERC721 Token\n * @notice smart contract based on  - Learn Ethereum by author brian wu\n * @author cchavez\n */ \npragma solidity ^0.8.4;\nimport \"./ERC721.sol\";\n\ncontract DigitalArt is ERC721 {\n    string private _name;\n    string private _symbol;\n    Art[] public arts;\n    uint256 private pendingArtCount;\n    mapping (uint256 => address) private _tokenOwner;\n    mapping (address => uint256) private _ownedTokensCount;\n    mapping (uint256 => address) private _tokenApprovals;\n    mapping (address => mapping (address => bool)) private _operatorApprovals;\n    mapping(uint256 => ArtTxn[]) private artTxns;\n    uint256 public index;\n    struct Art {\n        uint256 id;\n        string title;\n        string description;\n        uint256 price;\n        string date;\n        string authorName;\n        address payable author;\n        address payable owner;\n        uint status;\n        string image;\n    }\n    struct ArtTxn {\n       uint256 id; \n       uint256 price;\n       address seller;\n       address buyer;\n       uint txnDate;\n       uint status;\n    }\n   event LogArtSold(uint _tokenId, string _title, string _authorName, uint256 _price, address _author,  address _current_owner, address _buyer);\n   event LogArtTokenCreate(uint _tokenId, string _title, string _category, string _authorName, uint256 _price, address _author,  address _current_owner);\n   event LogArtResell(uint _tokenId, uint _status, uint256 _price); \n\n   constructor (string memory __name, string memory __symbol) {\n        _name = __name;\n        _symbol = __symbol;\n    }\n    function name() external view returns (string memory) {\n        return _name;\n    }\n    function symbol() external view returns (string memory) {\n        return _symbol;\n    }\n    function createTokenAndSellArt(string memory _title, string memory _description, \n                                   string memory _date, string memory _authorName,  uint256 _price, string memory _image) public {\n        require(bytes(_title).length > 0, 'The title cannot be empty');\n        require(bytes(_date).length > 0, 'The Date cannot be empty');\n        require(bytes(_description).length > 0, 'The description cannot be empty');\n        require(_price > 0, 'The price cannot be empty');\n        require(bytes(_image).length > 0, 'The image cannot be empty');\n        address payable  _sender = payable(msg.sender);\n        Art memory _art = Art({\n            id: index,\n            title: _title,\n            description: _description,\n            price: _price,\n            date: _date,\n            authorName: _authorName,\n            author: _sender,\n            owner: _sender,\n            status: 1,\n            image: _image\n        });\n        // uint256 tokenId = (arts.push(_art)) - 1;\n        arts.push(_art);\n        uint256 tokenId = arts.length - 1;\n        _mint(msg.sender, tokenId); \n        emit LogArtTokenCreate(tokenId,_title,  _date, _authorName,_price, msg.sender, msg.sender);\n        index++;\n        pendingArtCount++;\n    }\n\n    function buyArt(uint256 _tokenId) payable public {\n        (uint256 _id, string memory _title, ,uint256 _price, uint _status,,string memory _authorName, address _author,address payable _current_owner, ) =  findArt(_tokenId);\n        require(_current_owner != address(0));\n        require(msg.sender != address(0));\n        require(msg.sender != _current_owner);\n        require(msg.value >= _price);\n        require(arts[_tokenId].owner != address(0));\n\n        //transfer ownership of art\n        _transfer(_current_owner, msg.sender, _tokenId);\n        //return extra payment\n        if(msg.value > _price) payable(msg.sender).transfer(msg.value - _price);\n        //make a payment\n        _current_owner.transfer(_price);\n        arts[_tokenId].owner = payable(msg.sender);\n        arts[_tokenId].status = 0;\n        ArtTxn memory _artTxn = ArtTxn({\n            id: _id,\n            price: _price,\n            seller: _current_owner,\n            buyer: msg.sender,\n            txnDate: block.timestamp,\n            status: _status\n        });\n        artTxns[_id].push(_artTxn);\n        pendingArtCount--;\n        \n        emit LogArtSold(_tokenId,_title,  _authorName,_price, _author,_current_owner,msg.sender);\n    }\n    function resellArt(uint256 _tokenId, uint256 _price) payable public {\n          require(msg.sender != address(0));\n          require(isOwnerOf(_tokenId,msg.sender));\n          arts[_tokenId].status = 1;\n          arts[_tokenId].price = _price;\n           pendingArtCount++;\n          emit LogArtResell(_tokenId, 1, _price);   \n    }\n    function findArt(uint256 _tokenId) public view   returns (\n        uint256, string memory, string memory, uint256, uint status,  string memory, string memory, address, address payable, string memory) {\n            Art memory art = arts[_tokenId];\n            return (art.id, art.title, art.description,\n                 art.price,   art.status, art.date, art.authorName, art.author, art.owner,art.image);\n    }\n  \n    function findAllArt() public view  returns (uint256[] memory, address[] memory, address[] memory,  uint[] memory) {\n         uint256 arrLength = arts.length;\n         uint256[] memory ids = new uint256[](arrLength);\n         address[] memory authors = new address[](arrLength); \n         address[] memory owners= new address[](arrLength); \n         uint[] memory status = new uint[](arrLength);\n         for (uint i = 0; i < arrLength; ++i) {\n            Art memory art = arts[i];\n            ids[i] = art.id;\n            authors[i] = art.author;\n            owners[i] = art.owner;\n            status[i] = art.status;\n         }\n        return (ids,authors, owners, status);\n    }\n     function findAllPendingArt() public view  returns (uint256[] memory, address[] memory, address[] memory,  uint[] memory) {\n        if (pendingArtCount == 0) {\n           return (new uint256[](0),new address[](0), new address[](0), new uint[](0));  \n        } else {\n             uint256 arrLength = arts.length;\n             uint256[] memory ids = new uint256[](pendingArtCount);\n             address[] memory authors = new address[](pendingArtCount); \n             address[] memory owners= new address[](pendingArtCount); \n             uint[] memory status = new uint[](pendingArtCount);\n             uint256 idx = 0;\n             for (uint i = 0; i < arrLength; ++i) {\n                Art memory art = arts[i];\n                if(art.status==1) {\n                    ids[idx] = art.id;\n                    authors[idx] = art.author;\n                    owners[idx] = art.owner;\n                    status[idx] = art.status; \n                    idx++;\n                }\n             }\n            return (ids,authors, owners, status);  \n        }\n\n    }   \n    function findMyArts()  public view returns (uint256[] memory _myArts) {\n        require(msg.sender != address(0));\n        uint256 numOftokens = balanceOf(msg.sender);\n        if (numOftokens == 0) {\n            return new uint256[](0);\n        } else {\n            uint256[] memory myArts = new uint256[](numOftokens);\n            uint256 idx = 0;\n            uint256 arrLength = arts.length;\n            for (uint256 i = 0; i < arrLength; i++) {\n                if (_tokenOwner[i] == msg.sender) {\n                    myArts[idx] = i;\n                    idx++;\n                }\n            }\n            return myArts;\n        }\n    }\n\n    function getArtAllTxn(uint256 _tokenId) public view  returns (uint256[] memory _id, uint256[] memory _price,address[] memory seller,address[] memory buyer, uint[] memory _txnDate ){\n        ArtTxn[] memory artTxnList = artTxns[_tokenId];\n        uint256 arrLength = artTxnList.length;\n        uint256[] memory ids = new uint256[](arrLength);\n        uint256[] memory prices = new uint256[](arrLength);\n        address[] memory sellers = new address[](arrLength);\n        address[] memory buyers = new address[](arrLength);\n        uint[] memory txnDates = new uint[](arrLength);\n        for (uint i = 0; i < artTxnList.length; ++i) {\n           ArtTxn memory artTxn = artTxnList[i];\n           ids[i] = artTxn.id;\n           prices[i] = artTxn.price; \n           sellers[i] =artTxn.seller; \n           buyers[i] =artTxn.buyer; \n           txnDates[i] =artTxn.txnDate; \n        }\n         return (ids,prices,sellers,buyers, txnDates);\n    }\n    function _transfer(address _from, address _to, uint256 _tokenId) private {\n        _ownedTokensCount[_to]++;\n        _ownedTokensCount[_from]--;\n        _tokenOwner[_tokenId] = _to;\n        emit Transfer(_from, _to, _tokenId);\n    }\n    function _mint(address _to, uint256 tokenId) internal {\n        require(_to != address(0));\n        require(!_exists(tokenId));\n        _tokenOwner[tokenId] = _to;\n        _ownedTokensCount[_to]++;\n        emit Transfer(address(0), _to, tokenId);\n    }\n    function _exists(uint256 tokenId) internal view returns (bool) {\n        address owner = _tokenOwner[tokenId];\n        return owner != address(0);\n    }\n\n   function balanceOf(address _owner) override public view returns (uint256) {\n        return _ownedTokensCount[_owner];\n    }\n    function ownerOf(uint256 _tokenId) override public view returns (address _owner) {\n        _owner = _tokenOwner[_tokenId];\n    }\n    function approve(address _to, uint256 _tokenId) override public {\n        require(isOwnerOf(_tokenId, msg.sender));\n        _tokenApprovals[_tokenId] = _to;\n        emit Approval(msg.sender, _to, _tokenId);\n    }\n\n    function transferFrom(address _from, address _to, uint256 _tokenId) override public {\n        require(_to != address(0));\n        require(isOwnerOf(_tokenId, _from));\n        require(isApproved(_to, _tokenId));\n        _transfer(_from, _to, _tokenId);\n    }\n\n    function transfer(address _to, uint256 _tokenId) public {\n        require(_to != address(0));\n        require(isOwnerOf(_tokenId, msg.sender));\n        _transfer(msg.sender, _to, _tokenId);\n    }\n    \n    function getApproved(uint256 tokenId) override public view returns (address operator) {\n        require(_exists(tokenId));\n        return _tokenApprovals[tokenId];\n    }\n\n    function setApprovalForAll(address operator, bool _approved) override public {\n        require(operator != msg.sender);\n        _operatorApprovals[msg.sender][operator] = _approved;\n        emit ApprovalForAll(msg.sender, operator, _approved);\n    }\n    function isApprovedForAll(address owner, address operator)  override public view returns (bool) {\n        return _operatorApprovals[owner][operator];\n    }\n    function safeTransferFrom(address from, address to, uint256 tokenId) override public {\n        // NOT IMPLEMENTED\n    }\n    function safeTransferFrom(address from, address to, uint256 tokenId, bytes memory data) override public {\n        // NOT IMPLEMENTED\n    }\n    \n    function isOwnerOf(uint256 tokenId, address account) public view returns (bool) {\n        address owner = _tokenOwner[tokenId];\n        require(owner != address(0));\n        return owner == account;\n    }\n    function isApproved(address _to, uint256 _tokenId) private view returns (bool) {\n        return _tokenApprovals[_tokenId] == _to;\n    }\n\n}",
  "sourcePath": "/Users/cchavez/Documents/personal/freelance/blockchain/eth/react-dapp-erc721-token/contracts/DigitalArt.sol",
  "compiler": {
    "name": "solc",
    "version": "0.8.4+commit.c7e474f2.Emscripten.clang"
  },
  "schemaVersion": "3.3.4",
  "updatedAt": "2021-05-04T13:43:31.976Z",
  "networkType": "ethereum",
  "devdoc": {
    "kind": "dev",
    "methods": {},
    "version": 1
  },
  "userdoc": {
    "kind": "user",
    "methods": {},
    "version": 1
  }
}